¦01YA33001P3A 06202511240718050050010000038000004799\
00100101217194183P65   YMESSAGES01MESSAGES02999999Y59999900003123456789000000012FRENCH DESCRIPTION!!ENGFRE26x29x35ItemItemItemFact1Fact1Fact1Fact1Fact2Fact2Fact2Fact2Fact3Fact3Fact3Fact3VENDORST\   
00200201218194187P65   YMESSAGES01MESSAGES02999999Y59999900003123456789000000012FRENCH DESCRIPTION!!ENGFRE26x29x35ItemItemItemFact1Fact1Fact1Fact1Fact2Fact2Fact2Fact2Fact3Fact3Fact3Fact3VENDORST\   
00300301217194182P65   YMESSAGES01MESSAGES02999999Y59999900001123456789000000012FRENCH DESCRIPTION!!ENGFRE26x29x35ItemItemItemFact1Fact1Fact1Fact1Fact2Fact2Fact2Fact2Fact3Fact3Fact3Fact3VENDORST\   
00400492858194182      YMESSAGES01          999999N59999900002123456789000000012FRENCH              ENGFRE26x29x35ItemItemI   Fact1Fact1Fact1     Fact2Fact2Fact2     Fact3Fact3Fact3     VENDORST\   
00000000000000000000000000000000000000000000000000000000000000000000000000000000                                                                                                                  \   
00000000000000000000000000000000000000000000000000000000000000000000000000000000                                                                                                                  \   
00000000000000000000000000000000000000000000000000000000000000000000000000000000                                                                                                                  \   
00000000000000000000000000000000000000000000000000000000000000000000000000000000                                                                                                                  \   
00000000000000000000000000000000000000000000000000000000000000000000000000000000                                                                                                                  \   
00000000000000000000000000000000000000000000000000000000000000000000000000000000                                                                                                                  \   
00000000000000000000000000000000000000000000000000000000000000000000000000000000                                                                                                                  \   
00000000000000000000000000000000000000000000000000000000000000000000000000000000                                                                                                                  \   
00000000000000000000000000000000000000000000000000000000000000000000000000000000                                                                                                                  \   
00000000000000000000000000000000000000000000000000000000000000000000000000000000                                                                                                                  \   
00000000000000000000000000000000000000000000000000000000000000000000000000000000                                                                                                                  \   
00000000000000000000000000000000000000000000000000000000000000000000000000000000                                                                                                                  \   
00000000000000000000000000000000000000000000000000000000000000000000000000000000                                                                                                                  \   
00000000000000000000000000000000000000000000000000000000000000000000000000000000                                                                                                                  \   
00000000000000000000000000000000000000000000000000000000000000000000000000000000                                                                                                                  \   
00000000000000000000000000000000000000000000000000000000000000000000000000000000                                                                                                                  \   
00000000000000000000000000000000000000000000000000000000000000000000000000000000                                                                                                                  \   
00000000000000000000000000000000000000000000000000000000000000000000000000000000                                                                                                                  \   
00000000000000000000000000000000000000000000000000000000000000000000000000000000                                                                                                                  \   
